S015000046696E616C2050726F6A6563742E737265632E
S11300004BC0000023C10000CCC2000063C000004C
S113001070C000005EC000005CC000005AC0000058
S113002058C0000056C0000054C0000052C0000078
S113003050C000004EC000004CC000004AC0000088
S113004048C0000046C0000044C0000042C0000098
S113005040C000003EC000003CC000003AC00000A8
S113006038C0000036C0000034C0000032C00000B8
S113007030C0000052C000002CC000002AC00000A4
S113008028C0000026C0000024C0000022C00000D8
S113009020C000001EC0000011241FBECFEFD0E21C
S11300A0DEBFCDBF12E0A0E0B1E0EAE9FBE000E092
S11300B00BBF02C007900D92AE33B107D9F722E00F
S11300C0AEE3B2E001C01D92A336B207E1F7F0D36C
S11300D062C5FCC01F920F920FB60F9211248F932A
S11300E082E0809354028F910F900FBE0F901F9067
S11300F018951F920F920FB60F9211248F939F930E
S113010081E090E090935E0280935D029F918F91D5
S11301100F900FBE0F901F9018951F920F920FB65D
S11301200F9211240BB60F922F933F938F939F93AB
S1130130EF93FF93209178003091790080914402ED
S1130140909145022817390740F4809178009091E6
S113015079009093450280934402499B06C0EAE7E4
S1130160F0E08081806480830BC080914402909190
S11301704502909343028093420281E080935402AB
S1130180FF91EF919F918F913F912F910F900BBE13
S11301900F900FBE0F901F9018958FEF81B984B9FF
S11301A087B980EF8AB98DEF80BB0895E89AE9E6B4
S11301B0F0E0808182608083E99A80818C60808312
S11301C0EA9A808180628083EB9A80818068808350
S11301D00895EAE7F0E08081806880838081886008
S11301E08083ECE7F0E0808181648083089585B5A5
S11301F0826085BD84B5836084BD84B5806884BD18
S113020080E587BD0895AC01E1E8F0E0908191605C
S1130210908390819860908388EE93E09093890016
S1130220809388001092850010928400B19A20E097
S113023030E005C0B19BFECFB19A2F5F3F4F24172A
S113024035071CF4B19BF6CFF7CF08951F920F9298
S11302500FB60F9211240BB60F922F933F934F9327
S11302605F936F937F938F939F93AF93BF93EF931A
S1130270FF9380914A0290914B02892B69F484E1A7
S113028090E0C1DF81E090E090934B0280934A02BA
S113029084E08093540207C084E190E0B4DF1092BC
S11302A04B0210924A02FF91EF91BF91AF919F913F
S11302B08F917F916F915F914F913F912F910F900B
S11302C00BBE0F900FBE0F901F9018951F920F92A8
S11302D00FB60F921124CAEAC8B984EF91E093DFF4
S11302E018B884EF91E08FDFF7CF4B9B2EC080913D
S11302F05D0290915E02892B41F580913E029091BE
S11303003F02019690933F0280933E0280913E0209
S113031090913F02049724F010923F0210923E0203
S1130320E0913E02F0913F02EE0FFF1FEA5CFD4FA9
S1130330808182B984E190E066DF4B9B06C08091A6
S11303405D0290915E02892BC1F282E090E090936D
S11303505A02809359020895AF92BF92CF92DF92CE
S1130360EF92FF920F931F93CF93DF938B01813012
S1130370910509F043C0161617060CF089C0CEEC9F
S1130380D1E00F2EF6E0CF2EF1E0DF2EF02DCB01E1
S1130390880F991F9C0122533E4F790180913E02A0
S11303A090913F02019690933F0280933E02809188
S11303B03E0290913F02049724F010923F02109263
S11303C03E02E0913E02F0913F02EE0FFF1FEA5C15
S11303D0FD4F808182B90233110521F4888199810E
S11303E012DF04C0F601808191810DDF2296F2E0D4
S11303F0CF0ED11CCE15DF0589F64AC0029709F04D
S113040047C0161617060CF043C0CEECD1E00F2EF1
S1130410F6E0AF2EF1E0BF2EF02DCB01880F991F2F
S11304209C0122533E4F79010F2EF3E0CF2ED12CA5
S1130430F02D80913E0290913F02019790933F02EC
S113044080933E0280913E0290913F02992324F4CE
S1130450D0923F02C0923E02E0913E02F0913F02F0
S1130460EE0FFF1FEA5CFD4F808182B90233110554
S113047021F488819981C7DE04C0F50180819181CE
S1130480C2DE2296F2E0AF0EB11CCE15DF0589F66E
S1130490DF91CF911F910F91FF90EF90DF90CF905C
S11304A0BF90AF90089580914202909143028F359E
S11304B0914040F4E0914E02F0914F0284E090E0CC
S11304C09183808380914202909143028F359140C1
S11304D078F080914202909143028C3B924040F428
S11304E0E0914E02F0914F0283E090E0918380838B
S11304F080914202909143028C3B924078F080912B
S11305004202909143028D3A934040F4E0914E02AE
S1130510F0914F0281E090E09183808380914202C8
S1130520909143028D3A934078F0809142029091E9
S113053043028115944040F4E0914E02F0914F0241
S113054082E090E0918380830895CF93DF93EC0160
S113055084E090E0FFD199838883FC0113821282A6
S1130560DF91CF910895DB01ED91FC91309761F01B
S1130570DA018D919C911197938382838D919C9143
S1130580FB01918380830895DA012D913C911197A9
S1130590FC01318320838D919C91DB018D939C938D
S11305A008951F920F920FB60F9211240BB60F925B
S11305B02F933F934F935F936F937F938F939F9367
S11305C0AF93BF93EF93FF938FEF9FEF9093450209
S11305D080934402EAE7F0E080818064808385E5CB
S11305E092E0B3DF45E552E06EE472E082E592E02A
S11305F0BADFFF91EF91BF91AF919F918F917F915E
S11306006F915F914F913F912F910F900BBE0F907F
S11306100FBE0F901F901895FC0180819181DA0123
S11306208D939C93A081B181109741F012968D9186
S11306309C91139791838083892B19F4FB01118278
S11306401082089548E452E06EE472E082E592E09C
S1130650E3DFE0914802F091490280819181909317
S11306605802809357028091570290915802049740
S113067081F58091590290915A02039729F464E616
S113068070E082E090E068DE8091590290915A0215
S1130690019729F462E370E082E090E05DDE8091EE
S11306A0590290915A02029729F462E370E081E0C2
S11306B090E052DE84E090E090935A0280935902D5
S11306C080915B0290915C02019690935C0280930E
S11306D05B028091570290915802039781F58091B3
S11306E0590290915A02049729F464E670E082E07A
S11306F090E032DE8091590290915A02019729F4D8
S113070062E370E081E090E027DE809159029091ED
S11307105A02029729F462E370E082E090E01CDE62
S113072083E090E090935A028093590280914002B2
S113073090914102019690934102809340028091EE
S1130740570290915802019781F580915902909136
S11307505A02029729F464E670E082E090E0FCDD3E
S11307608091590290915A02049729F462E370E04F
S113077081E090E0F1DD8091590290915A02039753
S113078029F462E370E082E090E0E6DD81E090E04D
S113079090935A02809359028091460290914702A5
S11307A0019690934702809346028091570290915C
S11307B05802029781F58091590290915A0201974B
S11307C029F464E670E082E090E0C6DD809159028D
S11307D090915A02049729F462E370E082E090E079
S11307E0BBDD8091590290915A02039729F462E388
S11307F070E081E090E0B0DD82E090E090935A02F6
S113080080935902809150029091510201969093E5
S11308105102809350020895DC01ED91FC913097D0
S113082049F080E090E001960280F381E02D30975A
S1130830D1F7089580E090E0089580914A02909164
S11308404B020197A1F58091500290915102805F73
S113085088B988EE93E0D7DC809140029091410200
S1130860805E88B988EE93E0CEDC80914602909158
S11308704702805C88B988EE93E0C5DC80915B0216
S113088090915C02805888B988EE93E0BCDC6EE4F9
S113089072E082E592E0C0DF805188B988EE93E08F
S11308A0B2DC80914A0290914B02019761F2089563
S11308B01F93CF93DF9310925402F8946EDC76DC8E
S11308C088DC95DC109253021092520210924F026F
S11308D010924E0210925602109255021092490242
S11308E010924802789401DD18B883E08093540292
S11308F0C2E3D2E013E0809154028330D1F028F4B3
S1130900813041F0823051F0F6CF8430B9F0853037
S1130910D9F0F1CFC8DD10925402EDCF888185B9AA
S113092091DE8091480290914902ACD01093540218
S1130930E2CF8A8185B910925402DDCF888185B9CE
S11309407CDF10935402D7CF80E090E0DF91CF9109
S11309501F9108950F931F93CF93DF9382309105D6
S113096010F482E090E0E0916102F091620220E0F4
S113097030E0A0E0B0E0309719F14081518102816C
S1130980138148175907C8F08417950769F410971D
S113099031F012960C93129713961C9327C0009370
S11309A061021093620222C02115310519F0421729
S11309B0530718F49A01BD01EF01DF01F801DBCF01
S11309C021153105F9F0281B390B2430310580F449
S11309D08A819B816115710521F0FB0193838283D8
S11309E004C09093620280936102FE01329644C077
S11309F0FE01E20FF31F8193919322503109398351
S1130A0028833AC020915F0230916002232B41F485
S1130A1020910201309103013093600220935F0220
S1130A2020910001309101012115310541F42DB7C8
S1130A303EB74091040150910501241B350BE09110
S1130A405F02F0916002E217F307A0F42E1B3F0B44
S1130A502817390778F0AC014E5F5F4F241735072C
S1130A6048F04E0F5F1F5093600240935F028193E2
S1130A70919302C0E0E0F0E0CF01DF91CF911F91AC
S1130A800F910895CF93DF93009709F481C0FC017F
S1130A90329713821282A0916102B0916202109780
S1130AA081F420813181820F931F20915F02309164
S1130AB060022817390751F5F0936002E0935F0252
S1130AC067C0ED0120E030E0CE17DF0740F44A8133
S1130AD05B819E0141155105F1F0EA01F5CFD38305
S1130AE0C28340815181840F951FC817D90759F4D7
S1130AF088819981840F951F0296918380838A81CE
S1130B009B81938382832115310529F4F09362023A
S1130B10E09361023DC0E901FB83EA834991599165
S1130B20C40FD51FEC17FD0761F480819181840FF8
S1130B30951F0296E90199838883828193819B831F
S1130B408A83E0E0F0E012968D919C9113970097D0
S1130B5019F0FD01DC01F7CF8D919C9111979D0156
S1130B602E5F3F4F820F931F20915F0230916002EE
S1130B702817390769F4309729F410926202109209
S1130B80610202C013821282B0936002A0935F02DA
S10D0B90DF91CF910895F894FFCF90
S1130B9A00006302200014001300110010000F006B
S1130BAA0F000E000D000D000C000B000B000B00D3
S1130BBA0A000A00090009000900090008000800DF
S1130BCA08000800080008000800080008000800D7
S1130BDA08000800080008000800080008000800C7
S1130BEA08000800080008000800080008000800B7
S1130BFA08000800080008000800080008000800A7
S1130C0A0800080008000800080008000800080096
S1130C1A0800080008000800080008000800080086
S1130C2A0800080008000800080008000800080076
S1130C3A0800080008000800090009000900090062
S1130C4A0A000A000B000B000B000C000D000D003B
S1130C5A0E000F000F0010001100130014001400FE
S1130C6A11000F000E000D000B000B000A00090012
S1130C7A0900080008000800080008000800080025
S1130C8A0800080008000800080008000800080016
S1130C9A0800080008000800080008000800080006
S1130CAA08000800080008000800080008000900F5
S1130CBA09000A000B000B000D000E000F001100C2
S1110CCA14000000020036002E002D0035003C
S9030000FC
